{
    "abi": [
        {
            "inputs": [
                {
                    "internalType": "address",
                    "name": "initialOwner",
                    "type": "address"
                },
                {
                    "internalType": "contract IBonsaiRelay",
                    "name": "bonsaiRelay_",
                    "type": "address"
                },
                {
                    "internalType": "bytes32",
                    "name": "erc20AddImageId_",
                    "type": "bytes32"
                },
                {
                    "internalType": "bytes32",
                    "name": "erc20SubImageId_",
                    "type": "bytes32"
                }
            ],
            "stateMutability": "nonpayable",
            "type": "constructor"
        },
        {
            "inputs": [],
            "name": "ECDSAInvalidSignature",
            "type": "error"
        },
        {
            "inputs": [
                {
                    "internalType": "uint256",
                    "name": "length",
                    "type": "uint256"
                }
            ],
            "name": "ECDSAInvalidSignatureLength",
            "type": "error"
        },
        {
            "inputs": [
                {
                    "internalType": "bytes32",
                    "name": "s",
                    "type": "bytes32"
                }
            ],
            "name": "ECDSAInvalidSignatureS",
            "type": "error"
        },
        {
            "inputs": [
                {
                    "internalType": "address",
                    "name": "spender",
                    "type": "address"
                },
                {
                    "internalType": "uint256",
                    "name": "allowance",
                    "type": "uint256"
                },
                {
                    "internalType": "uint256",
                    "name": "needed",
                    "type": "uint256"
                }
            ],
            "name": "ERC20InsufficientAllowance",
            "type": "error"
        },
        {
            "inputs": [
                {
                    "internalType": "address",
                    "name": "sender",
                    "type": "address"
                },
                {
                    "internalType": "uint256",
                    "name": "balance",
                    "type": "uint256"
                },
                {
                    "internalType": "uint256",
                    "name": "needed",
                    "type": "uint256"
                }
            ],
            "name": "ERC20InsufficientBalance",
            "type": "error"
        },
        {
            "inputs": [
                {
                    "internalType": "address",
                    "name": "approver",
                    "type": "address"
                }
            ],
            "name": "ERC20InvalidApprover",
            "type": "error"
        },
        {
            "inputs": [
                {
                    "internalType": "address",
                    "name": "receiver",
                    "type": "address"
                }
            ],
            "name": "ERC20InvalidReceiver",
            "type": "error"
        },
        {
            "inputs": [
                {
                    "internalType": "address",
                    "name": "sender",
                    "type": "address"
                }
            ],
            "name": "ERC20InvalidSender",
            "type": "error"
        },
        {
            "inputs": [
                {
                    "internalType": "address",
                    "name": "spender",
                    "type": "address"
                }
            ],
            "name": "ERC20InvalidSpender",
            "type": "error"
        },
        {
            "inputs": [
                {
                    "internalType": "uint256",
                    "name": "deadline",
                    "type": "uint256"
                }
            ],
            "name": "ERC2612ExpiredSignature",
            "type": "error"
        },
        {
            "inputs": [
                {
                    "internalType": "address",
                    "name": "signer",
                    "type": "address"
                },
                {
                    "internalType": "address",
                    "name": "owner",
                    "type": "address"
                }
            ],
            "name": "ERC2612InvalidSigner",
            "type": "error"
        },
        {
            "inputs": [
                {
                    "internalType": "address",
                    "name": "account",
                    "type": "address"
                },
                {
                    "internalType": "uint256",
                    "name": "currentNonce",
                    "type": "uint256"
                }
            ],
            "name": "InvalidAccountNonce",
            "type": "error"
        },
        {
            "inputs": [],
            "name": "InvalidShortString",
            "type": "error"
        },
        {
            "inputs": [
                {
                    "internalType": "string",
                    "name": "str",
                    "type": "string"
                }
            ],
            "name": "StringTooLong",
            "type": "error"
        },
        {
            "inputs": [
                {
                    "internalType": "contract IBonsaiRelay",
                    "name": "expected",
                    "type": "address"
                },
                {
                    "internalType": "contract IBonsaiRelay",
                    "name": "found",
                    "type": "address"
                }
            ],
            "name": "UnauthorizedCallbackSource",
            "type": "error"
        },
        {
            "inputs": [
                {
                    "internalType": "bytes32",
                    "name": "expected",
                    "type": "bytes32"
                },
                {
                    "internalType": "bytes32",
                    "name": "found",
                    "type": "bytes32"
                }
            ],
            "name": "UnexpectedImageId",
            "type": "error"
        },
        {
            "anonymous": false,
            "inputs": [
                {
                    "indexed": true,
                    "internalType": "address",
                    "name": "owner",
                    "type": "address"
                },
                {
                    "indexed": true,
                    "internalType": "address",
                    "name": "spender",
                    "type": "address"
                },
                {
                    "indexed": false,
                    "internalType": "uint256",
                    "name": "value",
                    "type": "uint256"
                }
            ],
            "name": "Approval",
            "type": "event"
        },
        {
            "anonymous": false,
            "inputs": [],
            "name": "EIP712DomainChanged",
            "type": "event"
        },
        {
            "anonymous": false,
            "inputs": [
                {
                    "indexed": true,
                    "internalType": "address",
                    "name": "from",
                    "type": "address"
                },
                {
                    "indexed": true,
                    "internalType": "address",
                    "name": "to",
                    "type": "address"
                },
                {
                    "indexed": false,
                    "internalType": "uint256",
                    "name": "value",
                    "type": "uint256"
                }
            ],
            "name": "Transfer",
            "type": "event"
        },
        {
            "anonymous": false,
            "inputs": [
                {
                    "indexed": true,
                    "internalType": "address",
                    "name": "user",
                    "type": "address"
                },
                {
                    "indexed": false,
                    "internalType": "uint256",
                    "name": "updatedBalance",
                    "type": "uint256"
                }
            ],
            "name": "UpdateBalanceCallback",
            "type": "event"
        },
        {
            "inputs": [],
            "name": "DOMAIN_SEPARATOR",
            "outputs": [
                {
                    "internalType": "bytes32",
                    "name": "",
                    "type": "bytes32"
                }
            ],
            "stateMutability": "view",
            "type": "function"
        },
        {
            "inputs": [],
            "name": "ERC20AddImageId",
            "outputs": [
                {
                    "internalType": "bytes32",
                    "name": "",
                    "type": "bytes32"
                }
            ],
            "stateMutability": "view",
            "type": "function"
        },
        {
            "inputs": [],
            "name": "ERC20SubImageId",
            "outputs": [
                {
                    "internalType": "bytes32",
                    "name": "",
                    "type": "bytes32"
                }
            ],
            "stateMutability": "view",
            "type": "function"
        },
        {
            "inputs": [
                {
                    "internalType": "address",
                    "name": "owner",
                    "type": "address"
                },
                {
                    "internalType": "address",
                    "name": "spender",
                    "type": "address"
                }
            ],
            "name": "allowance",
            "outputs": [
                {
                    "internalType": "uint256",
                    "name": "",
                    "type": "uint256"
                }
            ],
            "stateMutability": "view",
            "type": "function"
        },
        {
            "inputs": [
                {
                    "internalType": "address",
                    "name": "spender",
                    "type": "address"
                },
                {
                    "internalType": "uint256",
                    "name": "value",
                    "type": "uint256"
                }
            ],
            "name": "approve",
            "outputs": [
                {
                    "internalType": "bool",
                    "name": "",
                    "type": "bool"
                }
            ],
            "stateMutability": "nonpayable",
            "type": "function"
        },
        {
            "inputs": [
                {
                    "internalType": "address",
                    "name": "account",
                    "type": "address"
                }
            ],
            "name": "balanceOf",
            "outputs": [
                {
                    "internalType": "uint256",
                    "name": "",
                    "type": "uint256"
                }
            ],
            "stateMutability": "view",
            "type": "function"
        },
        {
            "inputs": [],
            "name": "bonsaiRelay",
            "outputs": [
                {
                    "internalType": "contract IBonsaiRelay",
                    "name": "",
                    "type": "address"
                }
            ],
            "stateMutability": "view",
            "type": "function"
        },
        {
            "inputs": [
                {
                    "internalType": "bytes32",
                    "name": "erc20AddImageId_",
                    "type": "bytes32"
                }
            ],
            "name": "changeAddImageId",
            "outputs": [],
            "stateMutability": "nonpayable",
            "type": "function"
        },
        {
            "inputs": [
                {
                    "internalType": "bytes32",
                    "name": "erc20SubImageId_",
                    "type": "bytes32"
                }
            ],
            "name": "changeSubImageId",
            "outputs": [],
            "stateMutability": "nonpayable",
            "type": "function"
        },
        {
            "inputs": [],
            "name": "decimals",
            "outputs": [
                {
                    "internalType": "uint8",
                    "name": "",
                    "type": "uint8"
                }
            ],
            "stateMutability": "view",
            "type": "function"
        },
        {
            "inputs": [],
            "name": "eip712Domain",
            "outputs": [
                {
                    "internalType": "bytes1",
                    "name": "fields",
                    "type": "bytes1"
                },
                {
                    "internalType": "string",
                    "name": "name",
                    "type": "string"
                },
                {
                    "internalType": "string",
                    "name": "version",
                    "type": "string"
                },
                {
                    "internalType": "uint256",
                    "name": "chainId",
                    "type": "uint256"
                },
                {
                    "internalType": "address",
                    "name": "verifyingContract",
                    "type": "address"
                },
                {
                    "internalType": "bytes32",
                    "name": "salt",
                    "type": "bytes32"
                },
                {
                    "internalType": "uint256[]",
                    "name": "extensions",
                    "type": "uint256[]"
                }
            ],
            "stateMutability": "view",
            "type": "function"
        },
        {
            "inputs": [
                {
                    "internalType": "address",
                    "name": "to",
                    "type": "address"
                },
                {
                    "internalType": "uint256",
                    "name": "amount",
                    "type": "uint256"
                }
            ],
            "name": "mint",
            "outputs": [],
            "stateMutability": "nonpayable",
            "type": "function"
        },
        {
            "inputs": [],
            "name": "name",
            "outputs": [
                {
                    "internalType": "string",
                    "name": "",
                    "type": "string"
                }
            ],
            "stateMutability": "view",
            "type": "function"
        },
        {
            "inputs": [
                {
                    "internalType": "address",
                    "name": "owner",
                    "type": "address"
                }
            ],
            "name": "nonces",
            "outputs": [
                {
                    "internalType": "uint256",
                    "name": "",
                    "type": "uint256"
                }
            ],
            "stateMutability": "view",
            "type": "function"
        },
        {
            "inputs": [
                {
                    "internalType": "address",
                    "name": "owner",
                    "type": "address"
                },
                {
                    "internalType": "address",
                    "name": "spender",
                    "type": "address"
                },
                {
                    "internalType": "uint256",
                    "name": "value",
                    "type": "uint256"
                },
                {
                    "internalType": "uint256",
                    "name": "deadline",
                    "type": "uint256"
                },
                {
                    "internalType": "uint8",
                    "name": "v",
                    "type": "uint8"
                },
                {
                    "internalType": "bytes32",
                    "name": "r",
                    "type": "bytes32"
                },
                {
                    "internalType": "bytes32",
                    "name": "s",
                    "type": "bytes32"
                }
            ],
            "name": "permit",
            "outputs": [],
            "stateMutability": "nonpayable",
            "type": "function"
        },
        {
            "inputs": [],
            "name": "symbol",
            "outputs": [
                {
                    "internalType": "string",
                    "name": "",
                    "type": "string"
                }
            ],
            "stateMutability": "view",
            "type": "function"
        },
        {
            "inputs": [],
            "name": "totalSupply",
            "outputs": [
                {
                    "internalType": "uint256",
                    "name": "",
                    "type": "uint256"
                }
            ],
            "stateMutability": "view",
            "type": "function"
        },
        {
            "inputs": [
                {
                    "internalType": "address",
                    "name": "to",
                    "type": "address"
                },
                {
                    "internalType": "uint256",
                    "name": "value",
                    "type": "uint256"
                }
            ],
            "name": "transfer",
            "outputs": [
                {
                    "internalType": "bool",
                    "name": "",
                    "type": "bool"
                }
            ],
            "stateMutability": "nonpayable",
            "type": "function"
        },
        {
            "inputs": [
                {
                    "internalType": "address",
                    "name": "from",
                    "type": "address"
                },
                {
                    "internalType": "address",
                    "name": "to",
                    "type": "address"
                },
                {
                    "internalType": "uint256",
                    "name": "value",
                    "type": "uint256"
                }
            ],
            "name": "transferFrom",
            "outputs": [
                {
                    "internalType": "bool",
                    "name": "",
                    "type": "bool"
                }
            ],
            "stateMutability": "nonpayable",
            "type": "function"
        },
        {
            "inputs": [
                {
                    "internalType": "address",
                    "name": "user_",
                    "type": "address"
                },
                {
                    "internalType": "uint256",
                    "name": "updatedBalance_",
                    "type": "uint256"
                }
            ],
            "name": "updateBalance",
            "outputs": [],
            "stateMutability": "nonpayable",
            "type": "function"
        }
    ],
    "bytecode": {
        "object": "0x6101806040523480156200001257600080fd5b50604051620017363803806200173683398101604081905262000035916200023a565b604080518082018252600b8082526a32a2a92199182a37b5b2b760a91b60208084018290528451808601865260018152603160f81b818301528551808701875293845283820192909252845180860190955260048552630454532360e41b908501526001600160a01b0387166080529192839291908787876003620000bb86826200032c565b506004620000ca85826200032c565b5060059190915560065550620000e6915083905060076200019c565b61014052620000f78160086200019c565b61016052815160208084019190912061010052815190820120610120524660c052620001876101005161012051604080517f8b73c3c69bb8fe3d512ecc4cf759cc79239f7b179b0ffacaa9a75d522b39400f60208201529081019290925260608201524660808201523060a082015260009060c00160405160208183030381529060405280519060200120905090565b60a05250503060e052506200046d9350505050565b6000602083511015620001bc57620001b483620001d5565b9050620001cf565b81620001c984826200032c565b5060ff90505b92915050565b600080829050601f815111156200020c578260405163305a27a960e01b8152600401620002039190620003f8565b60405180910390fd5b8051620002198262000448565b179392505050565b6001600160a01b03811681146200023757600080fd5b50565b600080600080608085870312156200025157600080fd5b84516200025e8162000221565b6020860151909450620002718162000221565b6040860151606090960151949790965092505050565b634e487b7160e01b600052604160045260246000fd5b600181811c90821680620002b257607f821691505b602082108103620002d357634e487b7160e01b600052602260045260246000fd5b50919050565b601f8211156200032757600081815260208120601f850160051c81016020861015620003025750805b601f850160051c820191505b8181101562000323578281556001016200030e565b5050505b505050565b81516001600160401b0381111562000348576200034862000287565b62000360816200035984546200029d565b84620002d9565b602080601f8311600181146200039857600084156200037f5750858301515b600019600386901b1c1916600185901b17855562000323565b600085815260208120601f198616915b82811015620003c957888601518255948401946001909101908401620003a8565b5085821015620003e85787850151600019600388901b60f8161c191681555b5050505050600190811b01905550565b600060208083528351808285015260005b81811015620004275785810183015185820160400152820162000409565b506000604082860101526040601f19601f8301168501019250505092915050565b80516020808301519190811015620002d35760001960209190910360031b1b16919050565b60805160a05160c05160e05161010051610120516101405161016051611255620004e160003960006108880152600061085b015260006107cd015260006107a5015260006107000152600061072a015260006107540152600081816102d101528181610a4b0152610b2101526112556000f3fe608060405234801561001057600080fd5b506004361061012c5760003560e01c8063800b4653116100ad578063d505accf11610071578063d505accf1461025a578063d8c3a0741461026d578063dd62ed3e14610280578063e0b1cccb146102b9578063e70ffd4b146102cc57600080fd5b8063800b46531461021257806384b0196e1461021b57806395d89b4114610236578063a20ce9021461023e578063a9059cbb1461024757600080fd5b80633644e515116100f45780633644e515146101a657806340c10f19146101ae57806358d3f333146101c357806370a08231146101d65780637ecebe00146101ff57600080fd5b806306fdde0314610131578063095ea7b31461014f57806318160ddd1461017257806323b872dd14610184578063313ce56714610197575b600080fd5b61013961030b565b6040516101469190610f2e565b60405180910390f35b61016261015d366004610f64565b61039d565b6040519015158152602001610146565b6002545b604051908152602001610146565b610162610192366004610f8e565b6103b7565b60405160008152602001610146565b6101766103db565b6101c16101bc366004610f64565b6103ea565b005b6101c16101d1366004610fca565b600555565b6101766101e4366004610fe3565b6001600160a01b031660009081526020819052604090205490565b61017661020d366004610fe3565b6103f8565b61017660065481565b610223610416565b6040516101469796959493929190610ffe565b61013961045c565b61017660055481565b610162610255366004610f64565b61046b565b6101c1610268366004611094565b610479565b6101c161027b366004610fca565b600655565b61017661028e366004611107565b6001600160a01b03918216600090815260016020908152604080832093909416825291909152205490565b6101c16102c7366004610f64565b6105b8565b6102f37f000000000000000000000000000000000000000000000000000000000000000081565b6040516001600160a01b039091168152602001610146565b60606003805461031a9061113a565b80601f01602080910402602001604051908101604052809291908181526020018280546103469061113a565b80156103935780601f1061036857610100808354040283529160200191610393565b820191906000526020600020905b81548152906001019060200180831161037657829003601f168201915b5050505050905090565b6000336103ab818585610617565b60019150505b92915050565b6000336103c5858285610629565b6103d0858585610694565b506001949350505050565b60006103e56106f3565b905090565b6103f4828261081e565b5050565b6001600160a01b0381166000908152600960205260408120546103b1565b60006060806000806000606061042a610854565b610432610881565b60408051600080825260208201909252600f60f81b9b939a50919850469750309650945092509050565b60606004805461031a9061113a565b6000336103ab818585610694565b834211156104a25760405163313c898160e11b8152600481018590526024015b60405180910390fd5b60007f6e71edae12b1b97f4d1f60370fef10105fa2faae0126114a169c64845d6126c98888886104ef8c6001600160a01b0316600090815260096020526040902080546001810190915590565b6040805160208101969096526001600160a01b0394851690860152929091166060840152608083015260a082015260c0810186905260e001604051602081830303815290604052805190602001209050600061054a826108ae565b9050600061055a828787876108db565b9050896001600160a01b0316816001600160a01b0316146105a1576040516325c0072360e11b81526001600160a01b0380831660048301528b166024820152604401610499565b6105ac8a8a8a610617565b50505050505050505050565b816001600160a01b03167f768173ae2b3a632cf24590ea24e56757778d649d198ab5da11d3c15e3eb4c0ad826040516105f391815260200190565b60405180910390a26001600160a01b03909116600090815260208190526040902055565b6106248383836001610909565b505050565b6001600160a01b03838116600090815260016020908152604080832093861683529290522054600019811461068e578181101561067f57828183604051637dc7a0d960e11b815260040161049993929190611174565b61068e84848484036000610909565b50505050565b6001600160a01b0383166106be57604051634b637e8f60e11b815260006004820152602401610499565b6001600160a01b0382166106e85760405163ec442f0560e01b815260006004820152602401610499565b6106248383836109de565b6000306001600160a01b037f00000000000000000000000000000000000000000000000000000000000000001614801561074c57507f000000000000000000000000000000000000000000000000000000000000000046145b1561077657507f000000000000000000000000000000000000000000000000000000000000000090565b6103e5604080517f8b73c3c69bb8fe3d512ecc4cf759cc79239f7b179b0ffacaa9a75d522b39400f60208201527f0000000000000000000000000000000000000000000000000000000000000000918101919091527f000000000000000000000000000000000000000000000000000000000000000060608201524660808201523060a082015260009060c00160405160208183030381529060405280519060200120905090565b6001600160a01b0382166108485760405163ec442f0560e01b815260006004820152602401610499565b6103f4600083836109de565b60606103e57f00000000000000000000000000000000000000000000000000000000000000006007610c4e565b60606103e57f00000000000000000000000000000000000000000000000000000000000000006008610c4e565b60006103b16108bb6106f3565b8360405161190160f01b8152600281019290925260228201526042902090565b6000806000806108ed88888888610cf9565b9250925092506108fd8282610dc8565b50909695505050505050565b6001600160a01b0384166109335760405163e602df0560e01b815260006004820152602401610499565b6001600160a01b03831661095d57604051634a1406b160e11b815260006004820152602401610499565b6001600160a01b038085166000908152600160209081526040808320938716835292905220829055801561068e57826001600160a01b0316846001600160a01b03167f8c5be1e5ebec7d5bd14f71427d1e84f3dd0314c0f7b2291e5b200ac8c7c3b925846040516109d091815260200190565b60405180910390a350505050565b6001600160a01b038316610a095780600260008282546109fe9190611195565b90915550610b039050565b6001600160a01b03831660009081526020819052604090205481811015610a495783818360405163391434e360e21b815260040161049993929190611174565b7f00000000000000000000000000000000000000000000000000000000000000006001600160a01b031663e80802a2600654868486604051602001610a9093929190611174565b60408051601f19818403018152908290526001600160e01b031960e085901b168252610acf9291309063e0b1cccb60e01b90620186a0906004016111b6565b600060405180830381600087803b158015610ae957600080fd5b505af1158015610afd573d6000803e3d6000fd5b50505050505b6001600160a01b038216610b1f57600280548290039055610bfc565b7f00000000000000000000000000000000000000000000000000000000000000006001600160a01b031663e80802a260055484600080876001600160a01b03166001600160a01b031681526020019081526020016000205485604051602001610b8a93929190611174565b60408051601f19818403018152908290526001600160e01b031960e085901b168252610bc99291309063e0b1cccb60e01b90620186a0906004016111b6565b600060405180830381600087803b158015610be357600080fd5b505af1158015610bf7573d6000803e3d6000fd5b505050505b816001600160a01b0316836001600160a01b03167fddf252ad1be2c89b69c2b068fc378daa952ba7f163c4a11628f55a4df523b3ef83604051610c4191815260200190565b60405180910390a3505050565b606060ff8314610c6857610c6183610e81565b90506103b1565b818054610c749061113a565b80601f0160208091040260200160405190810160405280929190818152602001828054610ca09061113a565b8015610ced5780601f10610cc257610100808354040283529160200191610ced565b820191906000526020600020905b815481529060010190602001808311610cd057829003601f168201915b505050505090506103b1565b600080807f7fffffffffffffffffffffffffffffff5d576e7357a4501ddfe92f46681b20a0841115610d345750600091506003905082610dbe565b604080516000808252602082018084528a905260ff891692820192909252606081018790526080810186905260019060a0016020604051602081039080840390855afa158015610d88573d6000803e3d6000fd5b5050604051601f1901519150506001600160a01b038116610db457506000925060019150829050610dbe565b9250600091508190505b9450945094915050565b6000826003811115610ddc57610ddc611209565b03610de5575050565b6001826003811115610df957610df9611209565b03610e175760405163f645eedf60e01b815260040160405180910390fd5b6002826003811115610e2b57610e2b611209565b03610e4c5760405163fce698f760e01b815260048101829052602401610499565b6003826003811115610e6057610e60611209565b036103f4576040516335e2f38360e21b815260048101829052602401610499565b60606000610e8e83610ec0565b604080516020808252818301909252919250600091906020820181803683375050509182525060208101929092525090565b600060ff8216601f8111156103b157604051632cd44ac360e21b815260040160405180910390fd5b6000815180845260005b81811015610f0e57602081850181015186830182015201610ef2565b506000602082860101526020601f19601f83011685010191505092915050565b602081526000610f416020830184610ee8565b9392505050565b80356001600160a01b0381168114610f5f57600080fd5b919050565b60008060408385031215610f7757600080fd5b610f8083610f48565b946020939093013593505050565b600080600060608486031215610fa357600080fd5b610fac84610f48565b9250610fba60208501610f48565b9150604084013590509250925092565b600060208284031215610fdc57600080fd5b5035919050565b600060208284031215610ff557600080fd5b610f4182610f48565b60ff60f81b881681526000602060e08184015261101e60e084018a610ee8565b8381036040850152611030818a610ee8565b606085018990526001600160a01b038816608086015260a0850187905284810360c0860152855180825283870192509083019060005b8181101561108257835183529284019291840191600101611066565b50909c9b505050505050505050505050565b600080600080600080600060e0888a0312156110af57600080fd5b6110b888610f48565b96506110c660208901610f48565b95506040880135945060608801359350608088013560ff811681146110ea57600080fd5b9699959850939692959460a0840135945060c09093013592915050565b6000806040838503121561111a57600080fd5b61112383610f48565b915061113160208401610f48565b90509250929050565b600181811c9082168061114e57607f821691505b60208210810361116e57634e487b7160e01b600052602260045260246000fd5b50919050565b6001600160a01b039390931683526020830191909152604082015260600190565b808201808211156103b157634e487b7160e01b600052601160045260246000fd5b85815260a0602082015260006111cf60a0830187610ee8565b6001600160a01b03959095166040830152506001600160e01b031992909216606083015267ffffffffffffffff1660809091015292915050565b634e487b7160e01b600052602160045260246000fdfea264697066735822122045bbdeea5154e08e5f2e6b64deca7713a981dbe9f39ba8a1c15f269437b30a0c64736f6c63430008140033",
        "linkReferences": {}
    },
    "methodIdentifiers": {
        "DOMAIN_SEPARATOR()": "3644e515",
        "ERC20AddImageId()": "a20ce902",
        "ERC20SubImageId()": "800b4653",
        "allowance(address,address)": "dd62ed3e",
        "approve(address,uint256)": "095ea7b3",
        "balanceOf(address)": "70a08231",
        "bonsaiRelay()": "e70ffd4b",
        "changeAddImageId(bytes32)": "58d3f333",
        "changeSubImageId(bytes32)": "d8c3a074",
        "decimals()": "313ce567",
        "eip712Domain()": "84b0196e",
        "mint(address,uint256)": "40c10f19",
        "name()": "06fdde03",
        "nonces(address)": "7ecebe00",
        "permit(address,address,uint256,uint256,uint8,bytes32,bytes32)": "d505accf",
        "symbol()": "95d89b41",
        "totalSupply()": "18160ddd",
        "transfer(address,uint256)": "a9059cbb",
        "transferFrom(address,address,uint256)": "23b872dd",
        "updateBalance(address,uint256)": "e0b1cccb"
    },
    "id": 17
}